{
  "contractName": "HealthRecord",
  "abi": [
    {
      "inputs": [],
      "stateMutability": "nonpayable",
      "type": "constructor"
    },
    {
      "anonymous": false,
      "inputs": [
        {
          "indexed": false,
          "internalType": "bytes12",
          "name": "_uid",
          "type": "bytes12"
        },
        {
          "indexed": false,
          "internalType": "string",
          "name": "_type",
          "type": "string"
        }
      ],
      "name": "signup",
      "type": "event"
    },
    {
      "inputs": [
        {
          "internalType": "bytes12",
          "name": "id",
          "type": "bytes12"
        }
      ],
      "name": "addTherapist",
      "outputs": [
        {
          "internalType": "bool",
          "name": "",
          "type": "bool"
        }
      ],
      "stateMutability": "nonpayable",
      "type": "function"
    },
    {
      "inputs": [],
      "name": "getPatientTherapists",
      "outputs": [
        {
          "internalType": "bytes12[]",
          "name": "",
          "type": "bytes12[]"
        }
      ],
      "stateMutability": "view",
      "type": "function"
    },
    {
      "inputs": [
        {
          "internalType": "string",
          "name": "_name",
          "type": "string"
        },
        {
          "internalType": "string",
          "name": "_gender",
          "type": "string"
        },
        {
          "internalType": "bytes12",
          "name": "_uid",
          "type": "bytes12"
        }
      ],
      "name": "signupUser",
      "outputs": [
        {
          "internalType": "bool",
          "name": "",
          "type": "bool"
        }
      ],
      "stateMutability": "nonpayable",
      "type": "function"
    },
    {
      "inputs": [
        {
          "internalType": "string",
          "name": "_name",
          "type": "string"
        },
        {
          "internalType": "string",
          "name": "_contact",
          "type": "string"
        },
        {
          "internalType": "string",
          "name": "_specialization",
          "type": "string"
        },
        {
          "internalType": "bytes12",
          "name": "_uid",
          "type": "bytes12"
        }
      ],
      "name": "signupTherapist",
      "outputs": [
        {
          "internalType": "bool",
          "name": "",
          "type": "bool"
        }
      ],
      "stateMutability": "nonpayable",
      "type": "function"
    },
    {
      "inputs": [
        {
          "internalType": "bytes12",
          "name": "_uid",
          "type": "bytes12"
        }
      ],
      "name": "getUserData",
      "outputs": [
        {
          "components": [
            {
              "internalType": "string",
              "name": "name",
              "type": "string"
            },
            {
              "internalType": "string",
              "name": "gender",
              "type": "string"
            },
            {
              "internalType": "bytes12",
              "name": "uid",
              "type": "bytes12"
            },
            {
              "internalType": "bytes32[]",
              "name": "files",
              "type": "bytes32[]"
            },
            {
              "internalType": "bytes12[]",
              "name": "doctor_list",
              "type": "bytes12[]"
            },
            {
              "internalType": "bool",
              "name": "set",
              "type": "bool"
            }
          ],
          "internalType": "struct HealthRecord.user",
          "name": "",
          "type": "tuple"
        }
      ],
      "stateMutability": "view",
      "type": "function"
    },
    {
      "inputs": [
        {
          "internalType": "bytes12",
          "name": "_uid",
          "type": "bytes12"
        }
      ],
      "name": "getTherapistData",
      "outputs": [
        {
          "components": [
            {
              "internalType": "string",
              "name": "name",
              "type": "string"
            },
            {
              "internalType": "string",
              "name": "contact",
              "type": "string"
            },
            {
              "internalType": "string",
              "name": "specialization",
              "type": "string"
            },
            {
              "internalType": "bytes12",
              "name": "uid",
              "type": "bytes12"
            },
            {
              "internalType": "bytes12[]",
              "name": "user_list",
              "type": "bytes12[]"
            },
            {
              "internalType": "bool",
              "name": "set",
              "type": "bool"
            }
          ],
          "internalType": "struct HealthRecord.therapist",
          "name": "",
          "type": "tuple"
        }
      ],
      "stateMutability": "view",
      "type": "function"
    },
    {
      "inputs": [
        {
          "internalType": "bytes12",
          "name": "_user_uid",
          "type": "bytes12"
        },
        {
          "internalType": "bytes12",
          "name": "_t_uid",
          "type": "bytes12"
        }
      ],
      "name": "grantRecordAccess",
      "outputs": [
        {
          "internalType": "bool",
          "name": "",
          "type": "bool"
        }
      ],
      "stateMutability": "nonpayable",
      "type": "function"
    },
    {
      "inputs": [
        {
          "internalType": "bytes12",
          "name": "_user_uid",
          "type": "bytes12"
        },
        {
          "internalType": "bytes12",
          "name": "_t_uid",
          "type": "bytes12"
        }
      ],
      "name": "revokeRecordAccess",
      "outputs": [
        {
          "internalType": "bool",
          "name": "",
          "type": "bool"
        }
      ],
      "stateMutability": "nonpayable",
      "type": "function"
    },
    {
      "inputs": [
        {
          "internalType": "bytes12",
          "name": "_uid",
          "type": "bytes12"
        }
      ],
      "name": "getPatientsForTherapist",
      "outputs": [
        {
          "components": [
            {
              "internalType": "string",
              "name": "name",
              "type": "string"
            },
            {
              "internalType": "string",
              "name": "gender",
              "type": "string"
            },
            {
              "internalType": "bytes12",
              "name": "uid",
              "type": "bytes12"
            },
            {
              "internalType": "bytes32[]",
              "name": "files",
              "type": "bytes32[]"
            },
            {
              "internalType": "bytes12[]",
              "name": "doctor_list",
              "type": "bytes12[]"
            },
            {
              "internalType": "bool",
              "name": "set",
              "type": "bool"
            }
          ],
          "internalType": "struct HealthRecord.user[]",
          "name": "",
          "type": "tuple[]"
        }
      ],
      "stateMutability": "view",
      "type": "function"
    },
    {
      "inputs": [
        {
          "internalType": "bytes12",
          "name": "_uid",
          "type": "bytes12"
        }
      ],
      "name": "getTherapistsForPatient",
      "outputs": [
        {
          "components": [
            {
              "internalType": "string",
              "name": "name",
              "type": "string"
            },
            {
              "internalType": "string",
              "name": "contact",
              "type": "string"
            },
            {
              "internalType": "string",
              "name": "specialization",
              "type": "string"
            },
            {
              "internalType": "bytes12",
              "name": "uid",
              "type": "bytes12"
            },
            {
              "internalType": "bytes12[]",
              "name": "user_list",
              "type": "bytes12[]"
            },
            {
              "internalType": "bool",
              "name": "set",
              "type": "bool"
            }
          ],
          "internalType": "struct HealthRecord.therapist[]",
          "name": "",
          "type": "tuple[]"
        }
      ],
      "stateMutability": "view",
      "type": "function"
    },
    {
      "inputs": [
        {
          "internalType": "bytes12",
          "name": "_uid",
          "type": "bytes12"
        },
        {
          "internalType": "bytes12",
          "name": "_tid",
          "type": "bytes12"
        },
        {
          "internalType": "bytes32",
          "name": "cid",
          "type": "bytes32"
        }
      ],
      "name": "addReport",
      "outputs": [
        {
          "internalType": "bool",
          "name": "",
          "type": "bool"
        }
      ],
      "stateMutability": "nonpayable",
      "type": "function"
    },
    {
      "inputs": [
        {
          "internalType": "bytes12",
          "name": "_u_uid",
          "type": "bytes12"
        },
        {
          "internalType": "bytes12",
          "name": "_t_uid",
          "type": "bytes12"
        }
      ],
      "name": "getReportsByUser",
      "outputs": [
        {
          "components": [
            {
              "internalType": "uint256",
              "name": "timestamp",
              "type": "uint256"
            },
            {
              "internalType": "bytes12",
              "name": "uid",
              "type": "bytes12"
            },
            {
              "internalType": "bytes12",
              "name": "generatedBy",
              "type": "bytes12"
            },
            {
              "internalType": "bytes32",
              "name": "cid",
              "type": "bytes32"
            }
          ],
          "internalType": "struct HealthRecord.report[]",
          "name": "",
          "type": "tuple[]"
        }
      ],
      "stateMutability": "view",
      "type": "function"
    },
    {
      "inputs": [
        {
          "internalType": "bytes12",
          "name": "_uid",
          "type": "bytes12"
        },
        {
          "internalType": "bytes12",
          "name": "_tid",
          "type": "bytes12"
        }
      ],
      "name": "checkAccess",
      "outputs": [
        {
          "internalType": "bool",
          "name": "",
          "type": "bool"
        }
      ],
      "stateMutability": "view",
      "type": "function"
    }
  ],
  "bytecode": "0x60806040526000600255600060035534801561001a57600080fd5b50336000806101000a81548173ffffffffffffffffffffffffffffffffffffffff021916908373ffffffffffffffffffffffffffffffffffffffff1602179055506141b38061006a6000396000f3fe608060405234801561001057600080fd5b50600436106100cf5760003560e01c806379f3e0b01161008c578063be45923d11610066578063be45923d14610272578063d6c8b280146102a2578063e8de2e97146102d2578063efb745a514610302576100cf565b806379f3e0b0146101f45780638c4969b914610224578063a40539ba14610254576100cf565b80630b7a181b146100d45780630da23d71146101045780633b756fb4146101345780634ce7f1a814610164578063550af678146101945780636458003f146101c4575b600080fd5b6100ee60048036038101906100e99190612e13565b610332565b6040516100fb91906131d1565b60405180910390f35b61011e60048036038101906101199190613328565b6108c9565b60405161012b91906133f2565b60405180910390f35b61014e6004803603810190610149919061340d565b610b3f565b60405161015b91906133f2565b60405180910390f35b61017e60048036038101906101799190613479565b610e44565b60405161018b91906133f2565b60405180910390f35b6101ae60048036038101906101a9919061340d565b61110a565b6040516101bb91906133f2565b60405180910390f35b6101de60048036038101906101d99190612e13565b611539565b6040516101eb919061356a565b60405180910390f35b61020e60048036038101906102099190612e13565b61189c565b60405161021b91906136ec565b60405180910390f35b61023e6004803603810190610239919061340d565b611e6d565b60405161024b919061382b565b60405180910390f35b61025c6121b4565b60405161026991906138bc565b60405180910390f35b61028c60048036038101906102879190612e13565b612246565b604051610299919061397c565b60405180910390f35b6102bc60048036038101906102b7919061340d565b6125e3565b6040516102c991906133f2565b60405180910390f35b6102ec60048036038101906102e7919061399e565b612808565b6040516102f991906133f2565b60405180910390f35b61031c60048036038101906103179190612e13565b612acd565b60405161032991906133f2565b60405180910390f35b60608160011515600560008373ffffffffffffffffffffffffffffffffffffffff191673ffffffffffffffffffffffffffffffffffffffff1916815260200190815260200160002060050160009054906101000a900460ff161515146103cd576040517f08c379a00000000000000000000000000000000000000000000000000000000081526004016103c490613a86565b60405180910390fd5b6000600560008573ffffffffffffffffffffffffffffffffffffffff191673ffffffffffffffffffffffffffffffffffffffff1916815260200190815260200160002060040180548060200260200160405190810160405280929190818152602001828054801561049757602002820191906000526020600020906000905b82829054906101000a900460a01b73ffffffffffffffffffffffffffffffffffffffff1916815260200190600c0190602082600b0104928301926001038202915080841161044c5790505b505050505090506000815167ffffffffffffffff8111156104bb576104ba6131fd565b5b6040519080825280602002602001820160405280156104f457816020015b6104e1612bc5565b8152602001906001900390816104d95790505b50905060005b82518110156108bd57600015156006600085848151811061051e5761051d613aa6565b5b602002602001015173ffffffffffffffffffffffffffffffffffffffff191673ffffffffffffffffffffffffffffffffffffffff1916815260200190815260200160002060008873ffffffffffffffffffffffffffffffffffffffff191673ffffffffffffffffffffffffffffffffffffffff1916815260200190815260200160002060009054906101000a900460ff16151503156108aa57600460008483815181106105ce576105cd613aa6565b5b602002602001015173ffffffffffffffffffffffffffffffffffffffff191673ffffffffffffffffffffffffffffffffffffffff191681526020019081526020016000206040518060c001604052908160008201805461062d90613b04565b80601f016020809104026020016040519081016040528092919081815260200182805461065990613b04565b80156106a65780601f1061067b576101008083540402835291602001916106a6565b820191906000526020600020905b81548152906001019060200180831161068957829003601f168201915b505050505081526020016001820180546106bf90613b04565b80601f01602080910402602001604051908101604052809291908181526020018280546106eb90613b04565b80156107385780601f1061070d57610100808354040283529160200191610738565b820191906000526020600020905b81548152906001019060200180831161071b57829003601f168201915b505050505081526020016002820160009054906101000a900460a01b73ffffffffffffffffffffffffffffffffffffffff191673ffffffffffffffffffffffffffffffffffffffff19168152602001600382018054806020026020016040519081016040528092919081815260200182805480156107d557602002820191906000526020600020905b8154815260200190600101908083116107c1575b505050505081526020016004820180548060200260200160405190810160405280929190818152602001828054801561086757602002820191906000526020600020906000905b82829054906101000a900460a01b73ffffffffffffffffffffffffffffffffffffffff1916815260200190600c0190602082600b0104928301926001038202915080841161081c5790505b505050505081526020016005820160009054906101000a900460ff16151515158152505082828151811061089e5761089d613aa6565b5b60200260200101819052505b80806108b590613b64565b9150506104fa565b50809350505050919050565b6000801515600560008473ffffffffffffffffffffffffffffffffffffffff191673ffffffffffffffffffffffffffffffffffffffff1916815260200190815260200160002060050160009054906101000a900460ff16151514610962576040517f08c379a000000000000000000000000000000000000000000000000000000000815260040161095990613bf8565b60405180910390fd5b60006040518060c001604052808781526020018681526020018581526020018473ffffffffffffffffffffffffffffffffffffffff19168152602001600067ffffffffffffffff8111156109b9576109b86131fd565b5b6040519080825280602002602001820160405280156109e75781602001602082028036833780820191505090505b5081526020016001151581525090506001600354610a059190613c18565b60038190555080600560008573ffffffffffffffffffffffffffffffffffffffff191673ffffffffffffffffffffffffffffffffffffffff191681526020019081526020016000206000820151816000019081610a629190613df8565b506020820151816001019081610a789190613df8565b506040820151816002019081610a8e9190613df8565b5060608201518160030160006101000a8154816bffffffffffffffffffffffff021916908360a01c02179055506080820151816004019080519060200190610ad7929190612c14565b5060a08201518160050160006101000a81548160ff0219169083151502179055509050507f0cb4e07aa19b8244f3f48924f677ff015700bbd3a85dc6f49c36e1e9832cbbf883604051610b2a9190613f25565b60405180910390a16001915050949350505050565b60008260011515600460008373ffffffffffffffffffffffffffffffffffffffff191673ffffffffffffffffffffffffffffffffffffffff1916815260200190815260200160002060050160009054906101000a900460ff16151514610bda576040517f08c379a0000000000000000000000000000000000000000000000000000000008152600401610bd190613f9f565b60405180910390fd5b8260011515600560008373ffffffffffffffffffffffffffffffffffffffff191673ffffffffffffffffffffffffffffffffffffffff1916815260200190815260200160002060050160009054906101000a900460ff16151514610c73576040517f08c379a0000000000000000000000000000000000000000000000000000000008152600401610c6a90613a86565b60405180910390fd5b60008054906101000a900473ffffffffffffffffffffffffffffffffffffffff1673ffffffffffffffffffffffffffffffffffffffff163373ffffffffffffffffffffffffffffffffffffffff1614610ccb57600080fd5b60011515600660008773ffffffffffffffffffffffffffffffffffffffff191673ffffffffffffffffffffffffffffffffffffffff1916815260200190815260200160002060008673ffffffffffffffffffffffffffffffffffffffff191673ffffffffffffffffffffffffffffffffffffffff1916815260200190815260200160002060009054906101000a900460ff16151514610d9f576040517f08c379a0000000000000000000000000000000000000000000000000000000008152600401610d969061400b565b60405180910390fd5b6000600660008773ffffffffffffffffffffffffffffffffffffffff191673ffffffffffffffffffffffffffffffffffffffff1916815260200190815260200160002060008673ffffffffffffffffffffffffffffffffffffffff191673ffffffffffffffffffffffffffffffffffffffff1916815260200190815260200160002060006101000a81548160ff02191690831515021790555060019250505092915050565b60008360011515600460008373ffffffffffffffffffffffffffffffffffffffff191673ffffffffffffffffffffffffffffffffffffffff1916815260200190815260200160002060050160009054906101000a900460ff16151514610edf576040517f08c379a0000000000000000000000000000000000000000000000000000000008152600401610ed690613f9f565b60405180910390fd5b8360011515600560008373ffffffffffffffffffffffffffffffffffffffff191673ffffffffffffffffffffffffffffffffffffffff1916815260200190815260200160002060050160009054906101000a900460ff16151514610f78576040517f08c379a0000000000000000000000000000000000000000000000000000000008152600401610f6f90613a86565b60405180910390fd5b60008054906101000a900473ffffffffffffffffffffffffffffffffffffffff1673ffffffffffffffffffffffffffffffffffffffff163373ffffffffffffffffffffffffffffffffffffffff1614610fd057600080fd5b6000429050600760008873ffffffffffffffffffffffffffffffffffffffff191673ffffffffffffffffffffffffffffffffffffffff1916815260200190815260200160002060405180608001604052808381526020018973ffffffffffffffffffffffffffffffffffffffff191681526020018873ffffffffffffffffffffffffffffffffffffffff191681526020018781525090806001815401808255809150506001900390600052602060002090600302016000909190919091506000820151816000015560208201518160010160006101000a8154816bffffffffffffffffffffffff021916908360a01c0217905550604082015181600101600c6101000a8154816bffffffffffffffffffffffff021916908360a01c0217905550606082015181600201555050600193505050509392505050565b60008260011515600460008373ffffffffffffffffffffffffffffffffffffffff191673ffffffffffffffffffffffffffffffffffffffff1916815260200190815260200160002060050160009054906101000a900460ff161515146111a5576040517f08c379a000000000000000000000000000000000000000000000000000000000815260040161119c90613f9f565b60405180910390fd5b8260011515600560008373ffffffffffffffffffffffffffffffffffffffff191673ffffffffffffffffffffffffffffffffffffffff1916815260200190815260200160002060050160009054906101000a900460ff1615151461123e576040517f08c379a000000000000000000000000000000000000000000000000000000000815260040161123590613a86565b60405180910390fd5b60008054906101000a900473ffffffffffffffffffffffffffffffffffffffff1673ffffffffffffffffffffffffffffffffffffffff163373ffffffffffffffffffffffffffffffffffffffff161461129657600080fd5b60001515600660008773ffffffffffffffffffffffffffffffffffffffff191673ffffffffffffffffffffffffffffffffffffffff1916815260200190815260200160002060008673ffffffffffffffffffffffffffffffffffffffff191673ffffffffffffffffffffffffffffffffffffffff1916815260200190815260200160002060009054906101000a900460ff1615151461136a576040517f08c379a000000000000000000000000000000000000000000000000000000000815260040161136190614077565b60405180910390fd5b6001600660008773ffffffffffffffffffffffffffffffffffffffff191673ffffffffffffffffffffffffffffffffffffffff1916815260200190815260200160002060008673ffffffffffffffffffffffffffffffffffffffff191673ffffffffffffffffffffffffffffffffffffffff1916815260200190815260200160002060006101000a81548160ff021916908315150217905550600460008673ffffffffffffffffffffffffffffffffffffffff191673ffffffffffffffffffffffffffffffffffffffff19168152602001908152602001600020600401849080600181540180825580915050600190039060005260206000209060029182820401919006600c029091909190916101000a8154816bffffffffffffffffffffffff021916908360a01c0217905550600560008573ffffffffffffffffffffffffffffffffffffffff191673ffffffffffffffffffffffffffffffffffffffff19168152602001908152602001600020600401859080600181540180825580915050600190039060005260206000209060029182820401919006600c029091909190916101000a8154816bffffffffffffffffffffffff021916908360a01c021790555060019250505092915050565b611541612bc5565b8160011515600460008373ffffffffffffffffffffffffffffffffffffffff191673ffffffffffffffffffffffffffffffffffffffff1916815260200190815260200160002060050160009054906101000a900460ff161515146115da576040517f08c379a00000000000000000000000000000000000000000000000000000000081526004016115d190613f9f565b60405180910390fd5b600460008473ffffffffffffffffffffffffffffffffffffffff191673ffffffffffffffffffffffffffffffffffffffff191681526020019081526020016000206040518060c001604052908160008201805461163690613b04565b80601f016020809104026020016040519081016040528092919081815260200182805461166290613b04565b80156116af5780601f10611684576101008083540402835291602001916116af565b820191906000526020600020905b81548152906001019060200180831161169257829003601f168201915b505050505081526020016001820180546116c890613b04565b80601f01602080910402602001604051908101604052809291908181526020018280546116f490613b04565b80156117415780601f1061171657610100808354040283529160200191611741565b820191906000526020600020905b81548152906001019060200180831161172457829003601f168201915b505050505081526020016002820160009054906101000a900460a01b73ffffffffffffffffffffffffffffffffffffffff191673ffffffffffffffffffffffffffffffffffffffff19168152602001600382018054806020026020016040519081016040528092919081815260200182805480156117de57602002820191906000526020600020905b8154815260200190600101908083116117ca575b505050505081526020016004820180548060200260200160405190810160405280929190818152602001828054801561187057602002820191906000526020600020906000905b82829054906101000a900460a01b73ffffffffffffffffffffffffffffffffffffffff1916815260200190600c0190602082600b010492830192600103820291508084116118255790505b505050505081526020016005820160009054906101000a900460ff161515151581525050915050919050565b60608160011515600460008373ffffffffffffffffffffffffffffffffffffffff191673ffffffffffffffffffffffffffffffffffffffff1916815260200190815260200160002060050160009054906101000a900460ff16151514611937576040517f08c379a000000000000000000000000000000000000000000000000000000000815260040161192e90613f9f565b60405180910390fd5b6000600460008573ffffffffffffffffffffffffffffffffffffffff191673ffffffffffffffffffffffffffffffffffffffff19168152602001908152602001600020600401805480602002602001604051908101604052809291908181526020018280548015611a0157602002820191906000526020600020906000905b82829054906101000a900460a01b73ffffffffffffffffffffffffffffffffffffffff1916815260200190600c0190602082600b010492830192600103820291508084116119b65790505b505050505090506000815167ffffffffffffffff811115611a2557611a246131fd565b5b604051908082528060200260200182016040528015611a5e57816020015b611a4b612cd1565b815260200190600190039081611a435790505b50905060005b8251811015611e615760001515600660008873ffffffffffffffffffffffffffffffffffffffff191673ffffffffffffffffffffffffffffffffffffffff191681526020019081526020016000206000858481518110611ac757611ac6613aa6565b5b602002602001015173ffffffffffffffffffffffffffffffffffffffff191673ffffffffffffffffffffffffffffffffffffffff1916815260200190815260200160002060009054906101000a900460ff1615150315611e4e5760056000848381518110611b3857611b37613aa6565b5b602002602001015173ffffffffffffffffffffffffffffffffffffffff191673ffffffffffffffffffffffffffffffffffffffff191681526020019081526020016000206040518060c0016040529081600082018054611b9790613b04565b80601f0160208091040260200160405190810160405280929190818152602001828054611bc390613b04565b8015611c105780601f10611be557610100808354040283529160200191611c10565b820191906000526020600020905b815481529060010190602001808311611bf357829003601f168201915b50505050508152602001600182018054611c2990613b04565b80601f0160208091040260200160405190810160405280929190818152602001828054611c5590613b04565b8015611ca25780601f10611c7757610100808354040283529160200191611ca2565b820191906000526020600020905b815481529060010190602001808311611c8557829003601f168201915b50505050508152602001600282018054611cbb90613b04565b80601f0160208091040260200160405190810160405280929190818152602001828054611ce790613b04565b8015611d345780601f10611d0957610100808354040283529160200191611d34565b820191906000526020600020905b815481529060010190602001808311611d1757829003601f168201915b505050505081526020016003820160009054906101000a900460a01b73ffffffffffffffffffffffffffffffffffffffff191673ffffffffffffffffffffffffffffffffffffffff1916815260200160048201805480602002602001604051908101604052809291908181526020018280548015611e0b57602002820191906000526020600020906000905b82829054906101000a900460a01b73ffffffffffffffffffffffffffffffffffffffff1916815260200190600c0190602082600b01049283019260010382029150808411611dc05790505b505050505081526020016005820160009054906101000a900460ff161515151581525050828281518110611e4257611e41613aa6565b5b60200260200101819052505b8080611e5990613b64565b915050611a64565b50809350505050919050565b60608260011515600460008373ffffffffffffffffffffffffffffffffffffffff191673ffffffffffffffffffffffffffffffffffffffff1916815260200190815260200160002060050160009054906101000a900460ff16151514611f08576040517f08c379a0000000000000000000000000000000000000000000000000000000008152600401611eff90613f9f565b60405180910390fd5b8260011515600560008373ffffffffffffffffffffffffffffffffffffffff191673ffffffffffffffffffffffffffffffffffffffff1916815260200190815260200160002060050160009054906101000a900460ff16151514611fa1576040517f08c379a0000000000000000000000000000000000000000000000000000000008152600401611f9890613a86565b60405180910390fd5b60011515600660008773ffffffffffffffffffffffffffffffffffffffff191673ffffffffffffffffffffffffffffffffffffffff1916815260200190815260200160002060008673ffffffffffffffffffffffffffffffffffffffff191673ffffffffffffffffffffffffffffffffffffffff1916815260200190815260200160002060009054906101000a900460ff16151514612075576040517f08c379a000000000000000000000000000000000000000000000000000000000815260040161206c906140e3565b60405180910390fd5b600760008673ffffffffffffffffffffffffffffffffffffffff191673ffffffffffffffffffffffffffffffffffffffff19168152602001908152602001600020805480602002602001604051908101604052809291908181526020016000905b828210156121a65783829060005260206000209060030201604051806080016040529081600082015481526020016001820160009054906101000a900460a01b73ffffffffffffffffffffffffffffffffffffffff191673ffffffffffffffffffffffffffffffffffffffff1916815260200160018201600c9054906101000a900460a01b73ffffffffffffffffffffffffffffffffffffffff191673ffffffffffffffffffffffffffffffffffffffff19168152602001600282015481525050815260200190600101906120d6565b505050509250505092915050565b6060600180548060200260200160405190810160405280929190818152602001828054801561223c57602002820191906000526020600020906000905b82829054906101000a900460a01b73ffffffffffffffffffffffffffffffffffffffff1916815260200190600c0190602082600b010492830192600103820291508084116121f15790505b5050505050905090565b61224e612cd1565b8160011515600560008373ffffffffffffffffffffffffffffffffffffffff191673ffffffffffffffffffffffffffffffffffffffff1916815260200190815260200160002060050160009054906101000a900460ff161515146122e7576040517f08c379a00000000000000000000000000000000000000000000000000000000081526004016122de90613a86565b60405180910390fd5b600560008473ffffffffffffffffffffffffffffffffffffffff191673ffffffffffffffffffffffffffffffffffffffff191681526020019081526020016000206040518060c001604052908160008201805461234390613b04565b80601f016020809104026020016040519081016040528092919081815260200182805461236f90613b04565b80156123bc5780601f10612391576101008083540402835291602001916123bc565b820191906000526020600020905b81548152906001019060200180831161239f57829003601f168201915b505050505081526020016001820180546123d590613b04565b80601f016020809104026020016040519081016040528092919081815260200182805461240190613b04565b801561244e5780601f106124235761010080835404028352916020019161244e565b820191906000526020600020905b81548152906001019060200180831161243157829003601f168201915b5050505050815260200160028201805461246790613b04565b80601f016020809104026020016040519081016040528092919081815260200182805461249390613b04565b80156124e05780601f106124b5576101008083540402835291602001916124e0565b820191906000526020600020905b8154815290600101906020018083116124c357829003601f168201915b505050505081526020016003820160009054906101000a900460a01b73ffffffffffffffffffffffffffffffffffffffff191673ffffffffffffffffffffffffffffffffffffffff19168152602001600482018054806020026020016040519081016040528092919081815260200182805480156125b757602002820191906000526020600020906000905b82829054906101000a900460a01b73ffffffffffffffffffffffffffffffffffffffff1916815260200190600c0190602082600b0104928301926001038202915080841161256c5790505b505050505081526020016005820160009054906101000a900460ff161515151581525050915050919050565b60008060009054906101000a900473ffffffffffffffffffffffffffffffffffffffff1673ffffffffffffffffffffffffffffffffffffffff163373ffffffffffffffffffffffffffffffffffffffff161461263e57600080fd5b8260011515600460008373ffffffffffffffffffffffffffffffffffffffff191673ffffffffffffffffffffffffffffffffffffffff1916815260200190815260200160002060050160009054906101000a900460ff161515146126d7576040517f08c379a00000000000000000000000000000000000000000000000000000000081526004016126ce90613f9f565b60405180910390fd5b8260011515600560008373ffffffffffffffffffffffffffffffffffffffff191673ffffffffffffffffffffffffffffffffffffffff1916815260200190815260200160002060050160009054906101000a900460ff16151514612770576040517f08c379a000000000000000000000000000000000000000000000000000000000815260040161276790613a86565b60405180910390fd5b600660008673ffffffffffffffffffffffffffffffffffffffff191673ffffffffffffffffffffffffffffffffffffffff1916815260200190815260200160002060008573ffffffffffffffffffffffffffffffffffffffff191673ffffffffffffffffffffffffffffffffffffffff1916815260200190815260200160002060009054906101000a900460ff169250505092915050565b6000801515600460008473ffffffffffffffffffffffffffffffffffffffff191673ffffffffffffffffffffffffffffffffffffffff1916815260200190815260200160002060050160009054906101000a900460ff161515146128a1576040517f08c379a000000000000000000000000000000000000000000000000000000000815260040161289890613bf8565b60405180910390fd5b60006040518060c001604052808681526020018581526020018473ffffffffffffffffffffffffffffffffffffffff19168152602001600067ffffffffffffffff8111156128f2576128f16131fd565b5b6040519080825280602002602001820160405280156129205781602001602082028036833780820191505090505b508152602001600067ffffffffffffffff811115612941576129406131fd565b5b60405190808252806020026020018201604052801561296f5781602001602082028036833780820191505090505b508152602001600115158152509050600160025461298d9190613c18565b60028190555080600460008573ffffffffffffffffffffffffffffffffffffffff191673ffffffffffffffffffffffffffffffffffffffff1916815260200190815260200160002060008201518160000190816129ea9190613df8565b506020820151816001019081612a009190613df8565b5060408201518160020160006101000a8154816bffffffffffffffffffffffff021916908360a01c02179055506060820151816003019080519060200190612a49929190612d20565b506080820151816004019080519060200190612a66929190612c14565b5060a08201518160050160006101000a81548160ff0219169083151502179055509050507f0cb4e07aa19b8244f3f48924f677ff015700bbd3a85dc6f49c36e1e9832cbbf883604051612ab9919061414f565b60405180910390a160019150509392505050565b60008160011515600560008373ffffffffffffffffffffffffffffffffffffffff191673ffffffffffffffffffffffffffffffffffffffff1916815260200190815260200160002060050160009054906101000a900460ff16151514612b68576040517f08c379a0000000000000000000000000000000000000000000000000000000008152600401612b5f90613a86565b60405180910390fd5b6001839080600181540180825580915050600190039060005260206000209060029182820401919006600c029091909190916101000a8154816bffffffffffffffffffffffff021916908360a01c02179055506001915050919050565b6040518060c001604052806060815260200160608152602001600073ffffffffffffffffffffffffffffffffffffffff1916815260200160608152602001606081526020016000151581525090565b82805482825590600052602060002090600101600290048101928215612cc05791602002820160005b83821115612c8657835183826101000a8154816bffffffffffffffffffffffff021916908360a01c02179055509260200192600c01602081600b01049283019260010302612c3d565b8015612cbe5782816101000a8154906bffffffffffffffffffffffff0219169055600c01602081600b01049283019260010302612c86565b505b509050612ccd9190612d6d565b5090565b6040518060c00160405280606081526020016060815260200160608152602001600073ffffffffffffffffffffffffffffffffffffffff19168152602001606081526020016000151581525090565b828054828255906000526020600020908101928215612d5c579160200282015b82811115612d5b578251825591602001919060010190612d40565b5b509050612d699190612d8a565b5090565b5b80821115612d86576000816000905550600101612d6e565b5090565b5b80821115612da3576000816000905550600101612d8b565b5090565b6000604051905090565b600080fd5b600080fd5b60007fffffffffffffffffffffffff000000000000000000000000000000000000000082169050919050565b612df081612dbb565b8114612dfb57600080fd5b50565b600081359050612e0d81612de7565b92915050565b600060208284031215612e2957612e28612db1565b5b6000612e3784828501612dfe565b91505092915050565b600081519050919050565b600082825260208201905092915050565b6000819050602082019050919050565b600081519050919050565b600082825260208201905092915050565b60005b83811015612ea6578082015181840152602081019050612e8b565b60008484015250505050565b6000601f19601f8301169050919050565b6000612ece82612e6c565b612ed88185612e77565b9350612ee8818560208601612e88565b612ef181612eb2565b840191505092915050565b612f0581612dbb565b82525050565b600081519050919050565b600082825260208201905092915050565b6000819050602082019050919050565b6000819050919050565b612f4a81612f37565b82525050565b6000612f5c8383612f41565b60208301905092915050565b6000602082019050919050565b6000612f8082612f0b565b612f8a8185612f16565b9350612f9583612f27565b8060005b83811015612fc6578151612fad8882612f50565b9750612fb883612f68565b925050600181019050612f99565b5085935050505092915050565b600081519050919050565b600082825260208201905092915050565b6000819050602082019050919050565b600061300b8383612efc565b60208301905092915050565b6000602082019050919050565b600061302f82612fd3565b6130398185612fde565b935061304483612fef565b8060005b8381101561307557815161305c8882612fff565b975061306783613017565b925050600181019050613048565b5085935050505092915050565b60008115159050919050565b61309781613082565b82525050565b600060c08301600083015184820360008601526130ba8282612ec3565b915050602083015184820360208601526130d48282612ec3565b91505060408301516130e96040860182612efc565b50606083015184820360608601526131018282612f75565b9150506080830151848203608086015261311b8282613024565b91505060a083015161313060a086018261308e565b508091505092915050565b6000613147838361309d565b905092915050565b6000602082019050919050565b600061316782612e40565b6131718185612e4b565b93508360208202850161318385612e5c565b8060005b858110156131bf57848403895281516131a0858261313b565b94506131ab8361314f565b925060208a01995050600181019050613187565b50829750879550505050505092915050565b600060208201905081810360008301526131eb818461315c565b905092915050565b600080fd5b600080fd5b7f4e487b7100000000000000000000000000000000000000000000000000000000600052604160045260246000fd5b61323582612eb2565b810181811067ffffffffffffffff82111715613254576132536131fd565b5b80604052505050565b6000613267612da7565b9050613273828261322c565b919050565b600067ffffffffffffffff821115613293576132926131fd565b5b61329c82612eb2565b9050602081019050919050565b82818337600083830152505050565b60006132cb6132c684613278565b61325d565b9050828152602081018484840111156132e7576132e66131f8565b5b6132f28482856132a9565b509392505050565b600082601f83011261330f5761330e6131f3565b5b813561331f8482602086016132b8565b91505092915050565b6000806000806080858703121561334257613341612db1565b5b600085013567ffffffffffffffff8111156133605761335f612db6565b5b61336c878288016132fa565b945050602085013567ffffffffffffffff81111561338d5761338c612db6565b5b613399878288016132fa565b935050604085013567ffffffffffffffff8111156133ba576133b9612db6565b5b6133c6878288016132fa565b92505060606133d787828801612dfe565b91505092959194509250565b6133ec81613082565b82525050565b600060208201905061340760008301846133e3565b92915050565b6000806040838503121561342457613423612db1565b5b600061343285828601612dfe565b925050602061344385828601612dfe565b9150509250929050565b61345681612f37565b811461346157600080fd5b50565b6000813590506134738161344d565b92915050565b60008060006060848603121561349257613491612db1565b5b60006134a086828701612dfe565b93505060206134b186828701612dfe565b92505060406134c286828701613464565b9150509250925092565b600060c08301600083015184820360008601526134e98282612ec3565b915050602083015184820360208601526135038282612ec3565b91505060408301516135186040860182612efc565b50606083015184820360608601526135308282612f75565b9150506080830151848203608086015261354a8282613024565b91505060a083015161355f60a086018261308e565b508091505092915050565b6000602082019050818103600083015261358481846134cc565b905092915050565b600081519050919050565b600082825260208201905092915050565b6000819050602082019050919050565b600060c08301600083015184820360008601526135d58282612ec3565b915050602083015184820360208601526135ef8282612ec3565b915050604083015184820360408601526136098282612ec3565b915050606083015161361e6060860182612efc565b50608083015184820360808601526136368282613024565b91505060a083015161364b60a086018261308e565b508091505092915050565b600061366283836135b8565b905092915050565b6000602082019050919050565b60006136828261358c565b61368c8185613597565b93508360208202850161369e856135a8565b8060005b858110156136da57848403895281516136bb8582613656565b94506136c68361366a565b925060208a019950506001810190506136a2565b50829750879550505050505092915050565b600060208201905081810360008301526137068184613677565b905092915050565b600081519050919050565b600082825260208201905092915050565b6000819050602082019050919050565b6000819050919050565b61374d8161373a565b82525050565b6080820160008201516137696000850182613744565b50602082015161377c6020850182612efc565b50604082015161378f6040850182612efc565b5060608201516137a26060850182612f41565b50505050565b60006137b48383613753565b60808301905092915050565b6000602082019050919050565b60006137d88261370e565b6137e28185613719565b93506137ed8361372a565b8060005b8381101561381e57815161380588826137a8565b9750613810836137c0565b9250506001810190506137f1565b5085935050505092915050565b6000602082019050818103600083015261384581846137cd565b905092915050565b600082825260208201905092915050565b600061386982612fd3565b613873818561384d565b935061387e83612fef565b8060005b838110156138af5781516138968882612fff565b97506138a183613017565b925050600181019050613882565b5085935050505092915050565b600060208201905081810360008301526138d6818461385e565b905092915050565b600060c08301600083015184820360008601526138fb8282612ec3565b915050602083015184820360208601526139158282612ec3565b9150506040830151848203604086015261392f8282612ec3565b91505060608301516139446060860182612efc565b506080830151848203608086015261395c8282613024565b91505060a083015161397160a086018261308e565b508091505092915050565b6000602082019050818103600083015261399681846138de565b905092915050565b6000806000606084860312156139b7576139b6612db1565b5b600084013567ffffffffffffffff8111156139d5576139d4612db6565b5b6139e1868287016132fa565b935050602084013567ffffffffffffffff811115613a0257613a01612db6565b5b613a0e868287016132fa565b9250506040613a1f86828701612dfe565b9150509250925092565b600082825260208201905092915050565b7f4e6f742061207468657261706973740000000000000000000000000000000000600082015250565b6000613a70600f83613a29565b9150613a7b82613a3a565b602082019050919050565b60006020820190508181036000830152613a9f81613a63565b9050919050565b7f4e487b7100000000000000000000000000000000000000000000000000000000600052603260045260246000fd5b7f4e487b7100000000000000000000000000000000000000000000000000000000600052602260045260246000fd5b60006002820490506001821680613b1c57607f821691505b602082108103613b2f57613b2e613ad5565b5b50919050565b7f4e487b7100000000000000000000000000000000000000000000000000000000600052601160045260246000fd5b6000613b6f8261373a565b91507fffffffffffffffffffffffffffffffffffffffffffffffffffffffffffffffff8203613ba157613ba0613b35565b5b600182019050919050565b7f5573657220616c72656164792065786973747300000000000000000000000000600082015250565b6000613be2601383613a29565b9150613bed82613bac565b602082019050919050565b60006020820190508181036000830152613c1181613bd5565b9050919050565b6000613c238261373a565b9150613c2e8361373a565b9250828201905080821115613c4657613c45613b35565b5b92915050565b60008190508160005260206000209050919050565b60006020601f8301049050919050565b600082821b905092915050565b600060088302613cae7fffffffffffffffffffffffffffffffffffffffffffffffffffffffffffffffff82613c71565b613cb88683613c71565b95508019841693508086168417925050509392505050565b6000819050919050565b6000613cf5613cf0613ceb8461373a565b613cd0565b61373a565b9050919050565b6000819050919050565b613d0f83613cda565b613d23613d1b82613cfc565b848454613c7e565b825550505050565b600090565b613d38613d2b565b613d43818484613d06565b505050565b5b81811015613d6757613d5c600082613d30565b600181019050613d49565b5050565b601f821115613dac57613d7d81613c4c565b613d8684613c61565b81016020851015613d95578190505b613da9613da185613c61565b830182613d48565b50505b505050565b600082821c905092915050565b6000613dcf60001984600802613db1565b1980831691505092915050565b6000613de88383613dbe565b9150826002028217905092915050565b613e0182612e6c565b67ffffffffffffffff811115613e1a57613e196131fd565b5b613e248254613b04565b613e2f828285613d6b565b600060209050601f831160018114613e625760008415613e50578287015190505b613e5a8582613ddc565b865550613ec2565b601f198416613e7086613c4c565b60005b82811015613e9857848901518255600182019150602085019450602081019050613e73565b86831015613eb55784890151613eb1601f891682613dbe565b8355505b6001600288020188555050505b505050505050565b613ed381612dbb565b82525050565b7f7468657261706973740000000000000000000000000000000000000000000000600082015250565b6000613f0f600983613a29565b9150613f1a82613ed9565b602082019050919050565b6000604082019050613f3a6000830184613eca565b8181036020830152613f4b81613f02565b905092915050565b7f4e6f742061207573657200000000000000000000000000000000000000000000600082015250565b6000613f89600a83613a29565b9150613f9482613f53565b602082019050919050565b60006020820190508181036000830152613fb881613f7c565b9050919050565b7f416c7265616479207265766f6b65642061636365737300000000000000000000600082015250565b6000613ff5601683613a29565b915061400082613fbf565b602082019050919050565b6000602082019050818103600083015261402481613fe8565b9050919050565b7f416c726561647920676976656e20616363657373000000000000000000000000600082015250565b6000614061601483613a29565b915061406c8261402b565b602082019050919050565b6000602082019050818103600083015261409081614054565b9050919050565b7f556e617574686f72697365642041636365737321210000000000000000000000600082015250565b60006140cd601583613a29565b91506140d882614097565b602082019050919050565b600060208201905081810360008301526140fc816140c0565b9050919050565b7f7573657200000000000000000000000000000000000000000000000000000000600082015250565b6000614139600483613a29565b915061414482614103565b602082019050919050565b60006040820190506141646000830184613eca565b81810360208301526141758161412c565b90509291505056fea2646970667358221220fe469f886a2f5bad205d1583c4ce35b4c07b10f3016e6b4499ea9605b2b625da64736f6c63430008130033",
  "immutableReferences": {},
  "source": "pragma solidity ^0.8.19;\r\n\r\n\r\ncontract HealthRecord{\r\n    address private owner;\r\n    bytes12[] doctorList;\r\n    uint userCount = 0;\r\n    uint tCount = 0;\r\n\r\n    // bytes32 cid = 0xb45165ed3cd437b9ffad02a2aad22a4ddc69162470e2622982889ce5826f6e3d;\r\n\r\n    mapping(bytes12 => user) userMapping;\r\n    mapping(bytes12 => therapist) tMapping;\r\n    mapping(bytes12 => mapping(bytes12 => bool)) recordAccess;\r\n    mapping(bytes12 => report[]) userReports;\r\n\r\n  // type(tCoun;\r\n\r\n    struct user {\r\n    string name;\r\n    string gender;\r\n    // string contact_info;\r\n    bytes12 uid;\r\n    bytes32[] files; \r\n    bytes12[] doctor_list;\r\n    bool set;\r\n  }\r\n\r\n  struct report {\r\n    uint timestamp;\r\n    bytes12 uid;\r\n    bytes12 generatedBy;\r\n    bytes32 cid;\r\n  }\r\n  \r\n \r\n  //structure of doctor info\r\n  struct therapist{\r\n      string name;\r\n      string contact;\r\n      string specialization;\r\n      bytes12 uid;\r\n      bytes12[] user_list;\r\n      bool set;\r\n  }\r\n\r\n  constructor(){\r\n    owner = msg.sender;\r\n  }\r\n\r\n\r\n  modifier onlyOwner(){\r\n    require(msg.sender == owner);\r\n    _;\r\n  }\r\n\r\n  modifier onlyUser(bytes12 _uid){\r\n    require(userMapping[_uid].set == true, \"Not a user\");\r\n    _;\r\n  }\r\n\r\n  modifier onlyTherapist(bytes12 _uid){\r\n    require(tMapping[_uid].set == true, \"Not a therapist\");\r\n    _;\r\n  }\r\n\r\n  function addTherapist(bytes12 id) onlyTherapist(id) public returns (bool){\r\n    doctorList.push(id);\r\n    return true;\r\n  }\r\n\r\n  function getPatientTherapists() public view returns(bytes12[] memory){\r\n    return doctorList;\r\n  }\r\n\r\n\r\n    event signup(bytes12 _uid, string _type);\r\n\r\n  function signupUser(string memory _name, string memory _gender, bytes12 _uid) public returns (bool) {\r\n\r\n    require(userMapping[_uid].set == false, \"User already exists\");\r\n\r\n    user memory newUser = user(_name, _gender, _uid, new bytes32[](0), new bytes12[](0), true);\r\n    userCount = userCount + 1;\r\n\r\n    // require(userMapping[_uid].name.length < 0 , \"User already exists!!\");\r\n    userMapping[_uid] = newUser;\r\n\r\n    emit signup(_uid, \"user\");\r\n\r\n    return true;\r\n\r\n  }\r\n\r\n  function signupTherapist(string memory _name, string memory _contact, string memory _specialization, bytes12  _uid) public returns (bool) {\r\n   \r\n    require(tMapping[_uid].set == false, \"User already exists\");\r\n\r\n    therapist memory newUser = therapist(_name, _contact, _specialization, _uid, new bytes12[](0), true);\r\n    tCount = tCount + 1;\r\n\r\n    // require(userMapping[_uid].name.length < 0 , \"User already exists!!\");\r\n    tMapping[_uid] = newUser;\r\n\r\n    emit signup(_uid, \"therapist\");\r\n\r\n\r\n    return true;\r\n\r\n  }\r\n\r\n  function getUserData(bytes12 _uid) public view onlyUser(_uid) returns(user memory){\r\n    return userMapping[_uid];\r\n  }\r\n\r\n  function getTherapistData(bytes12 _uid) public view onlyTherapist(_uid) returns(therapist memory){\r\n    return tMapping[_uid];\r\n  }\r\n\r\n\r\n  function grantRecordAccess(bytes12 _user_uid, bytes12 _t_uid) public onlyUser(_user_uid) onlyTherapist(_t_uid) onlyOwner returns (bool) {\r\n    require(recordAccess[_user_uid][_t_uid] == false, \"Already given access\");\r\n\r\n    recordAccess[_user_uid][_t_uid] = true;\r\n    userMapping[_user_uid].doctor_list.push(_t_uid);\r\n    tMapping[_t_uid].user_list.push(_user_uid);\r\n\r\n    return true;\r\n  }\r\n\r\n  function revokeRecordAccess(bytes12 _user_uid, bytes12 _t_uid)  onlyUser(_user_uid) onlyTherapist(_t_uid) public onlyOwner returns (bool) {\r\n    \r\n    require(recordAccess[_user_uid][_t_uid] == true, \"Already revoked access\");\r\n    recordAccess[_user_uid][_t_uid] = false;\r\n\r\n    return true;\r\n  }\r\n\r\n  function getPatientsForTherapist(bytes12 _uid) public onlyTherapist(_uid) view returns(user[] memory){\r\n    bytes12[] memory users = tMapping[_uid].user_list;\r\n    user[] memory result = new user[](users.length);\r\n\r\n    for(uint i=0;i<users.length;i++){\r\n        if(recordAccess[users[i]][_uid] == false) continue;\r\n        result[i] = userMapping[users[i]];\r\n    }\r\n\r\n    return result;\r\n  }\r\n\r\n  function getTherapistsForPatient(bytes12 _uid) public view onlyUser(_uid) returns(therapist[] memory){\r\n    bytes12[] memory therapists = userMapping[_uid].doctor_list;\r\n    therapist[] memory result = new therapist[](therapists.length);\r\n\r\n    for(uint i=0;i<therapists.length;i++){\r\n        if(recordAccess[_uid][therapists[i]] == false) continue;\r\n        result[i] = tMapping[therapists[i]];\r\n    }\r\n\r\n    return result;\r\n  } \r\n\r\n\r\n  function addReport(bytes12 _uid, bytes12 _tid, bytes32 cid) public onlyUser(_uid) onlyTherapist(_tid) onlyOwner returns(bool){\r\n    uint ts = block.timestamp;\r\n    userReports[_uid].push(report(ts, _uid, _tid, cid));\r\n    return true;\r\n  }\r\n\r\n  function getReportsByUser(bytes12 _u_uid, bytes12 _t_uid ) public onlyUser(_u_uid) onlyTherapist(_t_uid) view returns (report[] memory){\r\n    require(recordAccess[_u_uid][_t_uid] == true, \"Unauthorised Access!!\");\r\n    return userReports[_u_uid];\r\n  }\r\n\r\n  function checkAccess(bytes12 _uid, bytes12 _tid) public onlyOwner onlyUser(_uid) onlyTherapist(_tid) view returns (bool){\r\n    return recordAccess[_uid][_tid];\r\n  }\r\n\r\n\r\n}",
  "sourcePath": "C:\\jai\\Code\\mini_project_sem7\\neurosafe-webapp\\client\\app\\blockchain\\contracts\\HealthRecords.sol",
  "compiler": {
    "name": "solc",
    "version": "0.8.19+commit.7dd6d404.Emscripten.clang"
  },
  "schemaVersion": "3.4.16",
  "updatedAt": "2023-11-14T18:12:05.067Z",
  "devdoc": {
    "kind": "dev",
    "methods": {},
    "version": 1
  },
  "userdoc": {
    "kind": "user",
    "methods": {},
    "version": 1
  }
}