{
  "contractName": "HealthRecord",
  "abi": [
    {
      "inputs": [],
      "stateMutability": "nonpayable",
      "type": "constructor"
    },
    {
      "anonymous": false,
      "inputs": [
        {
          "indexed": false,
          "internalType": "bytes12",
          "name": "_uid",
          "type": "bytes12"
        },
        {
          "indexed": false,
          "internalType": "string",
          "name": "_type",
          "type": "string"
        }
      ],
      "name": "signup",
      "type": "event"
    },
    {
      "inputs": [
        {
          "internalType": "bytes12",
          "name": "id",
          "type": "bytes12"
        }
      ],
      "name": "addTherapist",
      "outputs": [
        {
          "internalType": "bool",
          "name": "",
          "type": "bool"
        }
      ],
      "stateMutability": "nonpayable",
      "type": "function"
    },
    {
      "inputs": [],
      "name": "getPatientTherapists",
      "outputs": [
        {
          "internalType": "bytes12[]",
          "name": "",
          "type": "bytes12[]"
        }
      ],
      "stateMutability": "view",
      "type": "function"
    },
    {
      "inputs": [
        {
          "internalType": "string",
          "name": "_name",
          "type": "string"
        },
        {
          "internalType": "string",
          "name": "_gender",
          "type": "string"
        },
        {
          "internalType": "bytes12",
          "name": "_uid",
          "type": "bytes12"
        }
      ],
      "name": "signupUser",
      "outputs": [
        {
          "internalType": "bool",
          "name": "",
          "type": "bool"
        }
      ],
      "stateMutability": "nonpayable",
      "type": "function"
    },
    {
      "inputs": [
        {
          "internalType": "string",
          "name": "_name",
          "type": "string"
        },
        {
          "internalType": "string",
          "name": "_contact",
          "type": "string"
        },
        {
          "internalType": "string",
          "name": "_specialization",
          "type": "string"
        },
        {
          "internalType": "bytes12",
          "name": "_uid",
          "type": "bytes12"
        }
      ],
      "name": "signupTherapist",
      "outputs": [
        {
          "internalType": "bool",
          "name": "",
          "type": "bool"
        }
      ],
      "stateMutability": "nonpayable",
      "type": "function"
    },
    {
      "inputs": [
        {
          "internalType": "bytes12",
          "name": "_uid",
          "type": "bytes12"
        }
      ],
      "name": "getUserData",
      "outputs": [
        {
          "components": [
            {
              "internalType": "string",
              "name": "name",
              "type": "string"
            },
            {
              "internalType": "string",
              "name": "gender",
              "type": "string"
            },
            {
              "internalType": "bytes12",
              "name": "uid",
              "type": "bytes12"
            },
            {
              "internalType": "bytes32[]",
              "name": "files",
              "type": "bytes32[]"
            },
            {
              "internalType": "bytes12[]",
              "name": "doctor_list",
              "type": "bytes12[]"
            }
          ],
          "internalType": "struct HealthRecord.user",
          "name": "",
          "type": "tuple"
        }
      ],
      "stateMutability": "view",
      "type": "function"
    },
    {
      "inputs": [
        {
          "internalType": "bytes12",
          "name": "_uid",
          "type": "bytes12"
        }
      ],
      "name": "getTherapistData",
      "outputs": [
        {
          "components": [
            {
              "internalType": "string",
              "name": "name",
              "type": "string"
            },
            {
              "internalType": "string",
              "name": "contact",
              "type": "string"
            },
            {
              "internalType": "string",
              "name": "specialization",
              "type": "string"
            },
            {
              "internalType": "bytes12",
              "name": "uid",
              "type": "bytes12"
            },
            {
              "internalType": "bytes12[]",
              "name": "user_list",
              "type": "bytes12[]"
            }
          ],
          "internalType": "struct HealthRecord.therapist",
          "name": "",
          "type": "tuple"
        }
      ],
      "stateMutability": "view",
      "type": "function"
    },
    {
      "inputs": [
        {
          "internalType": "bytes12",
          "name": "_user_uid",
          "type": "bytes12"
        },
        {
          "internalType": "bytes12",
          "name": "_t_uid",
          "type": "bytes12"
        }
      ],
      "name": "grantRecordAccess",
      "outputs": [
        {
          "internalType": "bool",
          "name": "",
          "type": "bool"
        }
      ],
      "stateMutability": "nonpayable",
      "type": "function"
    },
    {
      "inputs": [
        {
          "internalType": "bytes12",
          "name": "_user_uid",
          "type": "bytes12"
        },
        {
          "internalType": "bytes12",
          "name": "_t_uid",
          "type": "bytes12"
        }
      ],
      "name": "revokeRecordAccess",
      "outputs": [
        {
          "internalType": "bool",
          "name": "",
          "type": "bool"
        }
      ],
      "stateMutability": "nonpayable",
      "type": "function"
    },
    {
      "inputs": [
        {
          "internalType": "bytes12",
          "name": "_uid",
          "type": "bytes12"
        }
      ],
      "name": "getPatientsForTherapist",
      "outputs": [
        {
          "components": [
            {
              "internalType": "string",
              "name": "name",
              "type": "string"
            },
            {
              "internalType": "string",
              "name": "gender",
              "type": "string"
            },
            {
              "internalType": "bytes12",
              "name": "uid",
              "type": "bytes12"
            },
            {
              "internalType": "bytes32[]",
              "name": "files",
              "type": "bytes32[]"
            },
            {
              "internalType": "bytes12[]",
              "name": "doctor_list",
              "type": "bytes12[]"
            }
          ],
          "internalType": "struct HealthRecord.user[]",
          "name": "",
          "type": "tuple[]"
        }
      ],
      "stateMutability": "view",
      "type": "function"
    },
    {
      "inputs": [
        {
          "internalType": "bytes12",
          "name": "_uid",
          "type": "bytes12"
        }
      ],
      "name": "getTherapistsForPatient",
      "outputs": [
        {
          "components": [
            {
              "internalType": "string",
              "name": "name",
              "type": "string"
            },
            {
              "internalType": "string",
              "name": "contact",
              "type": "string"
            },
            {
              "internalType": "string",
              "name": "specialization",
              "type": "string"
            },
            {
              "internalType": "bytes12",
              "name": "uid",
              "type": "bytes12"
            },
            {
              "internalType": "bytes12[]",
              "name": "user_list",
              "type": "bytes12[]"
            }
          ],
          "internalType": "struct HealthRecord.therapist[]",
          "name": "",
          "type": "tuple[]"
        }
      ],
      "stateMutability": "view",
      "type": "function"
    },
    {
      "inputs": [
        {
          "internalType": "bytes12",
          "name": "_uid",
          "type": "bytes12"
        },
        {
          "internalType": "bytes12",
          "name": "_tid",
          "type": "bytes12"
        },
        {
          "internalType": "bytes32",
          "name": "cid",
          "type": "bytes32"
        }
      ],
      "name": "addReport",
      "outputs": [
        {
          "internalType": "bool",
          "name": "",
          "type": "bool"
        }
      ],
      "stateMutability": "nonpayable",
      "type": "function"
    },
    {
      "inputs": [
        {
          "internalType": "bytes12",
          "name": "_u_uid",
          "type": "bytes12"
        },
        {
          "internalType": "bytes12",
          "name": "_t_uid",
          "type": "bytes12"
        }
      ],
      "name": "getReportsByUser",
      "outputs": [
        {
          "components": [
            {
              "internalType": "uint256",
              "name": "timestamp",
              "type": "uint256"
            },
            {
              "internalType": "bytes12",
              "name": "uid",
              "type": "bytes12"
            },
            {
              "internalType": "bytes12",
              "name": "generatedBy",
              "type": "bytes12"
            },
            {
              "internalType": "bytes32",
              "name": "cid",
              "type": "bytes32"
            }
          ],
          "internalType": "struct HealthRecord.report[]",
          "name": "",
          "type": "tuple[]"
        }
      ],
      "stateMutability": "view",
      "type": "function"
    },
    {
      "inputs": [
        {
          "internalType": "bytes12",
          "name": "_uid",
          "type": "bytes12"
        },
        {
          "internalType": "bytes12",
          "name": "_tid",
          "type": "bytes12"
        }
      ],
      "name": "checkAccess",
      "outputs": [
        {
          "internalType": "bool",
          "name": "",
          "type": "bool"
        }
      ],
      "stateMutability": "view",
      "type": "function"
    }
  ],
  "bytecode": "0x60806040526000600255600060035534801561001a57600080fd5b50336000806101000a81548173ffffffffffffffffffffffffffffffffffffffff021916908373ffffffffffffffffffffffffffffffffffffffff1602179055506135118061006a6000396000f3fe608060405234801561001057600080fd5b50600436106100cf5760003560e01c806379f3e0b01161008c578063be45923d11610066578063be45923d14610272578063d6c8b280146102a2578063e8de2e97146102d2578063efb745a514610302576100cf565b806379f3e0b0146101f45780638c4969b914610224578063a40539ba14610254576100cf565b80630b7a181b146100d45780630da23d71146101045780633b756fb4146101345780634ce7f1a814610164578063550af678146101945780636458003f146101c4575b600080fd5b6100ee60048036038101906100e99190612310565b610332565b6040516100fb91906126a0565b60405180910390f35b61011e600480360381019061011991906127f7565b610814565b60405161012b91906128cd565b60405180910390f35b61014e600480360381019061014991906128e8565b6109c9565b60405161015b91906128cd565b60405180910390f35b61017e60048036038101906101799190612954565b610b9b565b60405161018b91906128cd565b60405180910390f35b6101ae60048036038101906101a991906128e8565b610d2e565b6040516101bb91906128cd565b60405180910390f35b6101de60048036038101906101d99190612310565b61102a565b6040516101eb9190612a32565b60405180910390f35b61020e60048036038101906102099190612310565b6112d8565b60405161021b9190612ba1565b60405180910390f35b61023e600480360381019061023991906128e8565b6117f4565b60405161024b9190612ce0565b60405180910390f35b61025c611a07565b6040516102699190612d71565b60405180910390f35b61028c60048036038101906102879190612310565b611a99565b6040516102999190612e1e565b60405180910390f35b6102bc60048036038101906102b791906128e8565b611d81565b6040516102c991906128cd565b60405180910390f35b6102ec60048036038101906102e79190612e40565b611e72565b6040516102f991906128cd565b60405180910390f35b61031c60048036038101906103179190612310565b612076565b60405161032991906128cd565b60405180910390f35b60606000600560008473ffffffffffffffffffffffffffffffffffffffff191673ffffffffffffffffffffffffffffffffffffffff191681526020019081526020016000206004018054806020026020016040519081016040528092919081815260200182805480156103fe57602002820191906000526020600020906000905b82829054906101000a900460a01b73ffffffffffffffffffffffffffffffffffffffff1916815260200190600c0190602082600b010492830192600103820291508084116103b35790505b505050505090506000815167ffffffffffffffff811115610422576104216126cc565b5b60405190808252806020026020018201604052801561045b57816020015b6104486120d4565b8152602001906001900390816104405790505b50905060005b825181101561080957600015156006600085848151811061048557610484612ecb565b5b602002602001015173ffffffffffffffffffffffffffffffffffffffff191673ffffffffffffffffffffffffffffffffffffffff1916815260200190815260200160002060008773ffffffffffffffffffffffffffffffffffffffff191673ffffffffffffffffffffffffffffffffffffffff1916815260200190815260200160002060009054906101000a900460ff16151503156107f6576004600084838151811061053557610534612ecb565b5b602002602001015173ffffffffffffffffffffffffffffffffffffffff191673ffffffffffffffffffffffffffffffffffffffff191681526020019081526020016000206040518060a001604052908160008201805461059490612f29565b80601f01602080910402602001604051908101604052809291908181526020018280546105c090612f29565b801561060d5780601f106105e25761010080835404028352916020019161060d565b820191906000526020600020905b8154815290600101906020018083116105f057829003601f168201915b5050505050815260200160018201805461062690612f29565b80601f016020809104026020016040519081016040528092919081815260200182805461065290612f29565b801561069f5780601f106106745761010080835404028352916020019161069f565b820191906000526020600020905b81548152906001019060200180831161068257829003601f168201915b505050505081526020016002820160009054906101000a900460a01b73ffffffffffffffffffffffffffffffffffffffff191673ffffffffffffffffffffffffffffffffffffffff191681526020016003820180548060200260200160405190810160405280929190818152602001828054801561073c57602002820191906000526020600020905b815481526020019060010190808311610728575b50505050508152602001600482018054806020026020016040519081016040528092919081815260200182805480156107ce57602002820191906000526020600020906000905b82829054906101000a900460a01b73ffffffffffffffffffffffffffffffffffffffff1916815260200190600c0190602082600b010492830192600103820291508084116107835790505b5050505050815250508282815181106107ea576107e9612ecb565b5b60200260200101819052505b808061080190612f89565b915050610461565b508092505050919050565b6000806040518060a001604052808781526020018681526020018581526020018473ffffffffffffffffffffffffffffffffffffffff19168152602001600067ffffffffffffffff81111561086c5761086b6126cc565b5b60405190808252806020026020018201604052801561089a5781602001602082028036833780820191505090505b50815250905060016003546108af9190612fd1565b60038190555080600560008573ffffffffffffffffffffffffffffffffffffffff191673ffffffffffffffffffffffffffffffffffffffff19168152602001908152602001600020600082015181600001908161090c91906131b1565b50602082015181600101908161092291906131b1565b50604082015181600201908161093891906131b1565b5060608201518160030160006101000a8154816bffffffffffffffffffffffff021916908360a01c0217905550608082015181600401908051906020019061098192919061211a565b509050507f0cb4e07aa19b8244f3f48924f677ff015700bbd3a85dc6f49c36e1e9832cbbf8836040516109b491906132ef565b60405180910390a16001915050949350505050565b60008060009054906101000a900473ffffffffffffffffffffffffffffffffffffffff1673ffffffffffffffffffffffffffffffffffffffff163373ffffffffffffffffffffffffffffffffffffffff1614610a2457600080fd5b60011515600660008573ffffffffffffffffffffffffffffffffffffffff191673ffffffffffffffffffffffffffffffffffffffff1916815260200190815260200160002060008473ffffffffffffffffffffffffffffffffffffffff191673ffffffffffffffffffffffffffffffffffffffff1916815260200190815260200160002060009054906101000a900460ff16151514610af8576040517f08c379a0000000000000000000000000000000000000000000000000000000008152600401610aef90613369565b60405180910390fd5b6000600660008573ffffffffffffffffffffffffffffffffffffffff191673ffffffffffffffffffffffffffffffffffffffff1916815260200190815260200160002060008473ffffffffffffffffffffffffffffffffffffffff191673ffffffffffffffffffffffffffffffffffffffff1916815260200190815260200160002060006101000a81548160ff0219169083151502179055506001905092915050565b60008060009054906101000a900473ffffffffffffffffffffffffffffffffffffffff1673ffffffffffffffffffffffffffffffffffffffff163373ffffffffffffffffffffffffffffffffffffffff1614610bf657600080fd5b6000429050600760008673ffffffffffffffffffffffffffffffffffffffff191673ffffffffffffffffffffffffffffffffffffffff1916815260200190815260200160002060405180608001604052808381526020018773ffffffffffffffffffffffffffffffffffffffff191681526020018673ffffffffffffffffffffffffffffffffffffffff191681526020018581525090806001815401808255809150506001900390600052602060002090600302016000909190919091506000820151816000015560208201518160010160006101000a8154816bffffffffffffffffffffffff021916908360a01c0217905550604082015181600101600c6101000a8154816bffffffffffffffffffffffff021916908360a01c021790555060608201518160020155505060019150509392505050565b60008060009054906101000a900473ffffffffffffffffffffffffffffffffffffffff1673ffffffffffffffffffffffffffffffffffffffff163373ffffffffffffffffffffffffffffffffffffffff1614610d8957600080fd5b60001515600660008573ffffffffffffffffffffffffffffffffffffffff191673ffffffffffffffffffffffffffffffffffffffff1916815260200190815260200160002060008473ffffffffffffffffffffffffffffffffffffffff191673ffffffffffffffffffffffffffffffffffffffff1916815260200190815260200160002060009054906101000a900460ff16151514610e5d576040517f08c379a0000000000000000000000000000000000000000000000000000000008152600401610e54906133d5565b60405180910390fd5b6001600660008573ffffffffffffffffffffffffffffffffffffffff191673ffffffffffffffffffffffffffffffffffffffff1916815260200190815260200160002060008473ffffffffffffffffffffffffffffffffffffffff191673ffffffffffffffffffffffffffffffffffffffff1916815260200190815260200160002060006101000a81548160ff021916908315150217905550600460008473ffffffffffffffffffffffffffffffffffffffff191673ffffffffffffffffffffffffffffffffffffffff19168152602001908152602001600020600401829080600181540180825580915050600190039060005260206000209060029182820401919006600c029091909190916101000a8154816bffffffffffffffffffffffff021916908360a01c0217905550600560008373ffffffffffffffffffffffffffffffffffffffff191673ffffffffffffffffffffffffffffffffffffffff19168152602001908152602001600020600401839080600181540180825580915050600190039060005260206000209060029182820401919006600c029091909190916101000a8154816bffffffffffffffffffffffff021916908360a01c02179055506001905092915050565b6110326120d4565b600460008373ffffffffffffffffffffffffffffffffffffffff191673ffffffffffffffffffffffffffffffffffffffff191681526020019081526020016000206040518060a001604052908160008201805461108e90612f29565b80601f01602080910402602001604051908101604052809291908181526020018280546110ba90612f29565b80156111075780601f106110dc57610100808354040283529160200191611107565b820191906000526020600020905b8154815290600101906020018083116110ea57829003601f168201915b5050505050815260200160018201805461112090612f29565b80601f016020809104026020016040519081016040528092919081815260200182805461114c90612f29565b80156111995780601f1061116e57610100808354040283529160200191611199565b820191906000526020600020905b81548152906001019060200180831161117c57829003601f168201915b505050505081526020016002820160009054906101000a900460a01b73ffffffffffffffffffffffffffffffffffffffff191673ffffffffffffffffffffffffffffffffffffffff191681526020016003820180548060200260200160405190810160405280929190818152602001828054801561123657602002820191906000526020600020905b815481526020019060010190808311611222575b50505050508152602001600482018054806020026020016040519081016040528092919081815260200182805480156112c857602002820191906000526020600020906000905b82829054906101000a900460a01b73ffffffffffffffffffffffffffffffffffffffff1916815260200190600c0190602082600b0104928301926001038202915080841161127d5790505b5050505050815250509050919050565b60606000600460008473ffffffffffffffffffffffffffffffffffffffff191673ffffffffffffffffffffffffffffffffffffffff191681526020019081526020016000206004018054806020026020016040519081016040528092919081815260200182805480156113a457602002820191906000526020600020906000905b82829054906101000a900460a01b73ffffffffffffffffffffffffffffffffffffffff1916815260200190600c0190602082600b010492830192600103820291508084116113595790505b505050505090506000815167ffffffffffffffff8111156113c8576113c76126cc565b5b60405190808252806020026020018201604052801561140157816020015b6113ee6121d7565b8152602001906001900390816113e65790505b50905060005b82518110156117e957600015156006600085848151811061142b5761142a612ecb565b5b602002602001015173ffffffffffffffffffffffffffffffffffffffff191673ffffffffffffffffffffffffffffffffffffffff1916815260200190815260200160002060008773ffffffffffffffffffffffffffffffffffffffff191673ffffffffffffffffffffffffffffffffffffffff1916815260200190815260200160002060009054906101000a900460ff16151503156117d657600560008483815181106114db576114da612ecb565b5b602002602001015173ffffffffffffffffffffffffffffffffffffffff191673ffffffffffffffffffffffffffffffffffffffff191681526020019081526020016000206040518060a001604052908160008201805461153a90612f29565b80601f016020809104026020016040519081016040528092919081815260200182805461156690612f29565b80156115b35780601f10611588576101008083540402835291602001916115b3565b820191906000526020600020905b81548152906001019060200180831161159657829003601f168201915b505050505081526020016001820180546115cc90612f29565b80601f01602080910402602001604051908101604052809291908181526020018280546115f890612f29565b80156116455780601f1061161a57610100808354040283529160200191611645565b820191906000526020600020905b81548152906001019060200180831161162857829003601f168201915b5050505050815260200160028201805461165e90612f29565b80601f016020809104026020016040519081016040528092919081815260200182805461168a90612f29565b80156116d75780601f106116ac576101008083540402835291602001916116d7565b820191906000526020600020905b8154815290600101906020018083116116ba57829003601f168201915b505050505081526020016003820160009054906101000a900460a01b73ffffffffffffffffffffffffffffffffffffffff191673ffffffffffffffffffffffffffffffffffffffff19168152602001600482018054806020026020016040519081016040528092919081815260200182805480156117ae57602002820191906000526020600020906000905b82829054906101000a900460a01b73ffffffffffffffffffffffffffffffffffffffff1916815260200190600c0190602082600b010492830192600103820291508084116117635790505b5050505050815250508282815181106117ca576117c9612ecb565b5b60200260200101819052505b80806117e190612f89565b915050611407565b508092505050919050565b606060011515600660008573ffffffffffffffffffffffffffffffffffffffff191673ffffffffffffffffffffffffffffffffffffffff1916815260200190815260200160002060008473ffffffffffffffffffffffffffffffffffffffff191673ffffffffffffffffffffffffffffffffffffffff1916815260200190815260200160002060009054906101000a900460ff161515146118ca576040517f08c379a00000000000000000000000000000000000000000000000000000000081526004016118c190613441565b60405180910390fd5b600760008473ffffffffffffffffffffffffffffffffffffffff191673ffffffffffffffffffffffffffffffffffffffff19168152602001908152602001600020805480602002602001604051908101604052809291908181526020016000905b828210156119fb5783829060005260206000209060030201604051806080016040529081600082015481526020016001820160009054906101000a900460a01b73ffffffffffffffffffffffffffffffffffffffff191673ffffffffffffffffffffffffffffffffffffffff1916815260200160018201600c9054906101000a900460a01b73ffffffffffffffffffffffffffffffffffffffff191673ffffffffffffffffffffffffffffffffffffffff191681526020016002820154815250508152602001906001019061192b565b50505050905092915050565b60606001805480602002602001604051908101604052809291908181526020018280548015611a8f57602002820191906000526020600020906000905b82829054906101000a900460a01b73ffffffffffffffffffffffffffffffffffffffff1916815260200190600c0190602082600b01049283019260010382029150808411611a445790505b5050505050905090565b611aa16121d7565b600560008373ffffffffffffffffffffffffffffffffffffffff191673ffffffffffffffffffffffffffffffffffffffff191681526020019081526020016000206040518060a0016040529081600082018054611afd90612f29565b80601f0160208091040260200160405190810160405280929190818152602001828054611b2990612f29565b8015611b765780601f10611b4b57610100808354040283529160200191611b76565b820191906000526020600020905b815481529060010190602001808311611b5957829003601f168201915b50505050508152602001600182018054611b8f90612f29565b80601f0160208091040260200160405190810160405280929190818152602001828054611bbb90612f29565b8015611c085780601f10611bdd57610100808354040283529160200191611c08565b820191906000526020600020905b815481529060010190602001808311611beb57829003601f168201915b50505050508152602001600282018054611c2190612f29565b80601f0160208091040260200160405190810160405280929190818152602001828054611c4d90612f29565b8015611c9a5780601f10611c6f57610100808354040283529160200191611c9a565b820191906000526020600020905b815481529060010190602001808311611c7d57829003601f168201915b505050505081526020016003820160009054906101000a900460a01b73ffffffffffffffffffffffffffffffffffffffff191673ffffffffffffffffffffffffffffffffffffffff1916815260200160048201805480602002602001604051908101604052809291908181526020018280548015611d7157602002820191906000526020600020906000905b82829054906101000a900460a01b73ffffffffffffffffffffffffffffffffffffffff1916815260200190600c0190602082600b01049283019260010382029150808411611d265790505b5050505050815250509050919050565b60008060009054906101000a900473ffffffffffffffffffffffffffffffffffffffff1673ffffffffffffffffffffffffffffffffffffffff163373ffffffffffffffffffffffffffffffffffffffff1614611ddc57600080fd5b600660008473ffffffffffffffffffffffffffffffffffffffff191673ffffffffffffffffffffffffffffffffffffffff1916815260200190815260200160002060008373ffffffffffffffffffffffffffffffffffffffff191673ffffffffffffffffffffffffffffffffffffffff1916815260200190815260200160002060009054906101000a900460ff16905092915050565b6000806040518060a001604052808681526020018581526020018473ffffffffffffffffffffffffffffffffffffffff19168152602001600067ffffffffffffffff811115611ec457611ec36126cc565b5b604051908082528060200260200182016040528015611ef25781602001602082028036833780820191505090505b508152602001600067ffffffffffffffff811115611f1357611f126126cc565b5b604051908082528060200260200182016040528015611f415781602001602082028036833780820191505090505b5081525090506001600254611f569190612fd1565b60028190555080600460008573ffffffffffffffffffffffffffffffffffffffff191673ffffffffffffffffffffffffffffffffffffffff191681526020019081526020016000206000820151816000019081611fb391906131b1565b506020820151816001019081611fc991906131b1565b5060408201518160020160006101000a8154816bffffffffffffffffffffffff021916908360a01c0217905550606082015181600301908051906020019061201292919061221d565b50608082015181600401908051906020019061202f92919061211a565b509050507f0cb4e07aa19b8244f3f48924f677ff015700bbd3a85dc6f49c36e1e9832cbbf88360405161206291906134ad565b60405180910390a160019150509392505050565b60006001829080600181540180825580915050600190039060005260206000209060029182820401919006600c029091909190916101000a8154816bffffffffffffffffffffffff021916908360a01c021790555060019050919050565b6040518060a001604052806060815260200160608152602001600073ffffffffffffffffffffffffffffffffffffffff1916815260200160608152602001606081525090565b828054828255906000526020600020906001016002900481019282156121c65791602002820160005b8382111561218c57835183826101000a8154816bffffffffffffffffffffffff021916908360a01c02179055509260200192600c01602081600b01049283019260010302612143565b80156121c45782816101000a8154906bffffffffffffffffffffffff0219169055600c01602081600b0104928301926001030261218c565b505b5090506121d3919061226a565b5090565b6040518060a00160405280606081526020016060815260200160608152602001600073ffffffffffffffffffffffffffffffffffffffff19168152602001606081525090565b828054828255906000526020600020908101928215612259579160200282015b8281111561225857825182559160200191906001019061223d565b5b5090506122669190612287565b5090565b5b8082111561228357600081600090555060010161226b565b5090565b5b808211156122a0576000816000905550600101612288565b5090565b6000604051905090565b600080fd5b600080fd5b60007fffffffffffffffffffffffff000000000000000000000000000000000000000082169050919050565b6122ed816122b8565b81146122f857600080fd5b50565b60008135905061230a816122e4565b92915050565b600060208284031215612326576123256122ae565b5b6000612334848285016122fb565b91505092915050565b600081519050919050565b600082825260208201905092915050565b6000819050602082019050919050565b600081519050919050565b600082825260208201905092915050565b60005b838110156123a3578082015181840152602081019050612388565b60008484015250505050565b6000601f19601f8301169050919050565b60006123cb82612369565b6123d58185612374565b93506123e5818560208601612385565b6123ee816123af565b840191505092915050565b612402816122b8565b82525050565b600081519050919050565b600082825260208201905092915050565b6000819050602082019050919050565b6000819050919050565b61244781612434565b82525050565b6000612459838361243e565b60208301905092915050565b6000602082019050919050565b600061247d82612408565b6124878185612413565b935061249283612424565b8060005b838110156124c35781516124aa888261244d565b97506124b583612465565b925050600181019050612496565b5085935050505092915050565b600081519050919050565b600082825260208201905092915050565b6000819050602082019050919050565b600061250883836123f9565b60208301905092915050565b6000602082019050919050565b600061252c826124d0565b61253681856124db565b9350612541836124ec565b8060005b8381101561257257815161255988826124fc565b975061256483612514565b925050600181019050612545565b5085935050505092915050565b600060a083016000830151848203600086015261259c82826123c0565b915050602083015184820360208601526125b682826123c0565b91505060408301516125cb60408601826123f9565b50606083015184820360608601526125e38282612472565b915050608083015184820360808601526125fd8282612521565b9150508091505092915050565b6000612616838361257f565b905092915050565b6000602082019050919050565b60006126368261233d565b6126408185612348565b93508360208202850161265285612359565b8060005b8581101561268e578484038952815161266f858261260a565b945061267a8361261e565b925060208a01995050600181019050612656565b50829750879550505050505092915050565b600060208201905081810360008301526126ba818461262b565b905092915050565b600080fd5b600080fd5b7f4e487b7100000000000000000000000000000000000000000000000000000000600052604160045260246000fd5b612704826123af565b810181811067ffffffffffffffff82111715612723576127226126cc565b5b80604052505050565b60006127366122a4565b905061274282826126fb565b919050565b600067ffffffffffffffff821115612762576127616126cc565b5b61276b826123af565b9050602081019050919050565b82818337600083830152505050565b600061279a61279584612747565b61272c565b9050828152602081018484840111156127b6576127b56126c7565b5b6127c1848285612778565b509392505050565b600082601f8301126127de576127dd6126c2565b5b81356127ee848260208601612787565b91505092915050565b60008060008060808587031215612811576128106122ae565b5b600085013567ffffffffffffffff81111561282f5761282e6122b3565b5b61283b878288016127c9565b945050602085013567ffffffffffffffff81111561285c5761285b6122b3565b5b612868878288016127c9565b935050604085013567ffffffffffffffff811115612889576128886122b3565b5b612895878288016127c9565b92505060606128a6878288016122fb565b91505092959194509250565b60008115159050919050565b6128c7816128b2565b82525050565b60006020820190506128e260008301846128be565b92915050565b600080604083850312156128ff576128fe6122ae565b5b600061290d858286016122fb565b925050602061291e858286016122fb565b9150509250929050565b61293181612434565b811461293c57600080fd5b50565b60008135905061294e81612928565b92915050565b60008060006060848603121561296d5761296c6122ae565b5b600061297b868287016122fb565b935050602061298c868287016122fb565b925050604061299d8682870161293f565b9150509250925092565b600060a08301600083015184820360008601526129c482826123c0565b915050602083015184820360208601526129de82826123c0565b91505060408301516129f360408601826123f9565b5060608301518482036060860152612a0b8282612472565b91505060808301518482036080860152612a258282612521565b9150508091505092915050565b60006020820190508181036000830152612a4c81846129a7565b905092915050565b600081519050919050565b600082825260208201905092915050565b6000819050602082019050919050565b600060a0830160008301518482036000860152612a9d82826123c0565b91505060208301518482036020860152612ab782826123c0565b91505060408301518482036040860152612ad182826123c0565b9150506060830151612ae660608601826123f9565b5060808301518482036080860152612afe8282612521565b9150508091505092915050565b6000612b178383612a80565b905092915050565b6000602082019050919050565b6000612b3782612a54565b612b418185612a5f565b935083602082028501612b5385612a70565b8060005b85811015612b8f5784840389528151612b708582612b0b565b9450612b7b83612b1f565b925060208a01995050600181019050612b57565b50829750879550505050505092915050565b60006020820190508181036000830152612bbb8184612b2c565b905092915050565b600081519050919050565b600082825260208201905092915050565b6000819050602082019050919050565b6000819050919050565b612c0281612bef565b82525050565b608082016000820151612c1e6000850182612bf9565b506020820151612c3160208501826123f9565b506040820151612c4460408501826123f9565b506060820151612c57606085018261243e565b50505050565b6000612c698383612c08565b60808301905092915050565b6000602082019050919050565b6000612c8d82612bc3565b612c978185612bce565b9350612ca283612bdf565b8060005b83811015612cd3578151612cba8882612c5d565b9750612cc583612c75565b925050600181019050612ca6565b5085935050505092915050565b60006020820190508181036000830152612cfa8184612c82565b905092915050565b600082825260208201905092915050565b6000612d1e826124d0565b612d288185612d02565b9350612d33836124ec565b8060005b83811015612d64578151612d4b88826124fc565b9750612d5683612514565b925050600181019050612d37565b5085935050505092915050565b60006020820190508181036000830152612d8b8184612d13565b905092915050565b600060a0830160008301518482036000860152612db082826123c0565b91505060208301518482036020860152612dca82826123c0565b91505060408301518482036040860152612de482826123c0565b9150506060830151612df960608601826123f9565b5060808301518482036080860152612e118282612521565b9150508091505092915050565b60006020820190508181036000830152612e388184612d93565b905092915050565b600080600060608486031215612e5957612e586122ae565b5b600084013567ffffffffffffffff811115612e7757612e766122b3565b5b612e83868287016127c9565b935050602084013567ffffffffffffffff811115612ea457612ea36122b3565b5b612eb0868287016127c9565b9250506040612ec1868287016122fb565b9150509250925092565b7f4e487b7100000000000000000000000000000000000000000000000000000000600052603260045260246000fd5b7f4e487b7100000000000000000000000000000000000000000000000000000000600052602260045260246000fd5b60006002820490506001821680612f4157607f821691505b602082108103612f5457612f53612efa565b5b50919050565b7f4e487b7100000000000000000000000000000000000000000000000000000000600052601160045260246000fd5b6000612f9482612bef565b91507fffffffffffffffffffffffffffffffffffffffffffffffffffffffffffffffff8203612fc657612fc5612f5a565b5b600182019050919050565b6000612fdc82612bef565b9150612fe783612bef565b9250828201905080821115612fff57612ffe612f5a565b5b92915050565b60008190508160005260206000209050919050565b60006020601f8301049050919050565b600082821b905092915050565b6000600883026130677fffffffffffffffffffffffffffffffffffffffffffffffffffffffffffffffff8261302a565b613071868361302a565b95508019841693508086168417925050509392505050565b6000819050919050565b60006130ae6130a96130a484612bef565b613089565b612bef565b9050919050565b6000819050919050565b6130c883613093565b6130dc6130d4826130b5565b848454613037565b825550505050565b600090565b6130f16130e4565b6130fc8184846130bf565b505050565b5b81811015613120576131156000826130e9565b600181019050613102565b5050565b601f8211156131655761313681613005565b61313f8461301a565b8101602085101561314e578190505b61316261315a8561301a565b830182613101565b50505b505050565b600082821c905092915050565b60006131886000198460080261316a565b1980831691505092915050565b60006131a18383613177565b9150826002028217905092915050565b6131ba82612369565b67ffffffffffffffff8111156131d3576131d26126cc565b5b6131dd8254612f29565b6131e8828285613124565b600060209050601f83116001811461321b5760008415613209578287015190505b6132138582613195565b86555061327b565b601f19841661322986613005565b60005b828110156132515784890151825560018201915060208501945060208101905061322c565b8683101561326e578489015161326a601f891682613177565b8355505b6001600288020188555050505b505050505050565b61328c816122b8565b82525050565b600082825260208201905092915050565b7f7468657261706973740000000000000000000000000000000000000000000000600082015250565b60006132d9600983613292565b91506132e4826132a3565b602082019050919050565b60006040820190506133046000830184613283565b8181036020830152613315816132cc565b905092915050565b7f416c7265616479207265766f6b65642061636365737300000000000000000000600082015250565b6000613353601683613292565b915061335e8261331d565b602082019050919050565b6000602082019050818103600083015261338281613346565b9050919050565b7f416c726561647920676976656e20616363657373000000000000000000000000600082015250565b60006133bf601483613292565b91506133ca82613389565b602082019050919050565b600060208201905081810360008301526133ee816133b2565b9050919050565b7f556e617574686f72697365642041636365737321210000000000000000000000600082015250565b600061342b601583613292565b9150613436826133f5565b602082019050919050565b6000602082019050818103600083015261345a8161341e565b9050919050565b7f7573657200000000000000000000000000000000000000000000000000000000600082015250565b6000613497600483613292565b91506134a282613461565b602082019050919050565b60006040820190506134c26000830184613283565b81810360208301526134d38161348a565b90509291505056fea2646970667358221220d179767f5704fd1ee83700ba082b0860b184bad07c1e7c31eed3c20de6901e4764736f6c63430008130033",
  "immutableReferences": {},
  "source": "pragma solidity ^0.8.19;\r\n\r\n\r\ncontract HealthRecord{\r\n    address private owner;\r\n    bytes12[] doctorList;\r\n    uint userCount = 0;\r\n    uint tCount = 0;\r\n\r\n    // bytes32 cid = 0xb45165ed3cd437b9ffad02a2aad22a4ddc69162470e2622982889ce5826f6e3d;\r\n\r\n    mapping(bytes12 => user) userMapping;\r\n    mapping(bytes12 => therapist) tMapping;\r\n    mapping(bytes12 => mapping(bytes12 => bool)) recordAccess;\r\n    mapping(bytes12 => report[]) userReports;\r\n\r\n  // type(tCoun;\r\n\r\n    struct user {\r\n    string name;\r\n    string gender;\r\n    // string contact_info;\r\n    bytes12 uid;\r\n    bytes32[] files; \r\n    bytes12[] doctor_list;\r\n  }\r\n\r\n  struct report {\r\n    uint timestamp;\r\n    bytes12 uid;\r\n    bytes12 generatedBy;\r\n    bytes32 cid;\r\n  }\r\n  \r\n \r\n  //structure of doctor info\r\n  struct therapist{\r\n      string name;\r\n      string contact;\r\n      string specialization;\r\n      bytes12 uid;\r\n      bytes12[] user_list;\r\n  }\r\n\r\n  constructor(){\r\n    owner = msg.sender;\r\n  }\r\n\r\n\r\n  modifier onlyOwner(){\r\n    require(msg.sender == owner);\r\n    _;\r\n  }\r\n\r\n  function addTherapist(bytes12 id) public returns (bool){\r\n    doctorList.push(id);\r\n    return true;\r\n  }\r\n\r\n  function getPatientTherapists() public view returns(bytes12[] memory){\r\n    return doctorList;\r\n  }\r\n\r\n\r\n    event signup(bytes12 _uid, string _type);\r\n\r\n  function signupUser(string memory _name, string memory _gender, bytes12 _uid) public returns (bool) {\r\n\r\n    user memory newUser = user(_name, _gender, _uid, new bytes32[](0), new bytes12[](0));\r\n    userCount = userCount + 1;\r\n\r\n    // require(userMapping[_uid].name.length < 0 , \"User already exists!!\");\r\n    userMapping[_uid] = newUser;\r\n\r\n    emit signup(_uid, \"user\");\r\n\r\n    return true;\r\n\r\n  }\r\n\r\n  function signupTherapist(string memory _name, string memory _contact, string memory _specialization, bytes12  _uid) public returns (bool) {\r\n\r\n    therapist memory newUser = therapist(_name, _contact, _specialization, _uid, new bytes12[](0));\r\n    tCount = tCount + 1;\r\n\r\n    // require(userMapping[_uid].name.length < 0 , \"User already exists!!\");\r\n    tMapping[_uid] = newUser;\r\n\r\n    emit signup(_uid, \"therapist\");\r\n\r\n\r\n    return true;\r\n\r\n  }\r\n\r\n  function getUserData(bytes12 _uid) public view returns(user memory){\r\n    return userMapping[_uid];\r\n  }\r\n\r\n  function getTherapistData(bytes12 _uid) public view returns(therapist memory){\r\n    return tMapping[_uid];\r\n  }\r\n\r\n\r\n  function grantRecordAccess(bytes12 _user_uid, bytes12 _t_uid) public onlyOwner returns (bool) {\r\n    require(recordAccess[_user_uid][_t_uid] == false, \"Already given access\");\r\n\r\n    recordAccess[_user_uid][_t_uid] = true;\r\n    userMapping[_user_uid].doctor_list.push(_t_uid);\r\n    tMapping[_t_uid].user_list.push(_user_uid);\r\n\r\n    return true;\r\n  }\r\n\r\n  function revokeRecordAccess(bytes12 _user_uid, bytes12 _t_uid) public onlyOwner returns (bool) {\r\n    \r\n    require(recordAccess[_user_uid][_t_uid] == true, \"Already revoked access\");\r\n    recordAccess[_user_uid][_t_uid] = false;\r\n\r\n    return true;\r\n  }\r\n\r\n  function getPatientsForTherapist(bytes12 _uid) public view returns(user[] memory){\r\n    bytes12[] memory users = tMapping[_uid].user_list;\r\n    user[] memory result = new user[](users.length);\r\n\r\n    for(uint i=0;i<users.length;i++){\r\n        if(recordAccess[users[i]][_uid] == false) continue;\r\n        result[i] = userMapping[users[i]];\r\n    }\r\n\r\n    return result;\r\n  }\r\n\r\n  function getTherapistsForPatient(bytes12 _uid) public view returns(therapist[] memory){\r\n    bytes12[] memory therapists = userMapping[_uid].doctor_list;\r\n    therapist[] memory result = new therapist[](therapists.length);\r\n\r\n    for(uint i=0;i<therapists.length;i++){\r\n        if(recordAccess[therapists[i]][_uid] == false) continue;\r\n        result[i] = tMapping[therapists[i]];\r\n    }\r\n\r\n    return result;\r\n  } \r\n\r\n\r\n  function addReport(bytes12 _uid, bytes12 _tid, bytes32 cid) public onlyOwner returns(bool){\r\n    uint ts = block.timestamp;\r\n    userReports[_uid].push(report(ts, _uid, _tid, cid));\r\n    return true;\r\n  }\r\n\r\n  function getReportsByUser(bytes12 _u_uid, bytes12 _t_uid ) public view returns (report[] memory){\r\n    require(recordAccess[_u_uid][_t_uid] == true, \"Unauthorised Access!!\");\r\n    return userReports[_u_uid];\r\n  }\r\n\r\n  function checkAccess(bytes12 _uid, bytes12 _tid) public onlyOwner view returns (bool){\r\n    return recordAccess[_uid][_tid];\r\n  }\r\n\r\n\r\n}",
  "sourcePath": "C:\\jai\\Code\\mini_project_sem7\\neurosafe-webapp\\client\\app\\blockchain\\contracts\\HealthRecords.sol",
  "compiler": {
    "name": "solc",
    "version": "0.8.19+commit.7dd6d404.Emscripten.clang"
  },
  "schemaVersion": "3.4.16",
  "updatedAt": "2023-11-14T16:40:04.210Z",
  "devdoc": {
    "kind": "dev",
    "methods": {},
    "version": 1
  },
  "userdoc": {
    "kind": "user",
    "methods": {},
    "version": 1
  }
}